:0300000002091BD7
:0C091B00787FE4F6D8FD75815302096274
:100C490047616D65204F7665720053636F72653A2F
:020C5900200079
:100AE500021D0000021300000112AC0210000008F4
:100AF500080404150E04040A0008150C1E1A0C1629
:100B050012100020201F202020202020202020201F
:100B150020202020202002202020202020202020EE
:060B25002020202020200A
:060B6D00D2807F017E0032
:100B7300E4FDFC758901C3ED9FEE6480F8EC6480AD
:100B8300985016758CFC758A17D28C308DFDC28CEB
:090B9300C28D0DBD00010C80DDD6
:010B9C002236
:0E0C5B008F90C281120B6DC2807F05020B7359
:100C33007F147E00120B737F38120C5B7F0C120C37
:060C43005B7F01020C5B67
:0E0C69008F90D281120B6DC2807F05020B733B
:100BEB008B518A528953AB51AA52A95312080060F8
:100BFB00130553E5537002055214F9120800FF1246
:050C0B000C6980E222EB
:060B2C008B418A4289435F
:100B3200530707EF33333354F84440FF120C5BE49E
:100B4200F544F545AB41AA42A943854582854483D4
:100B5200120819FF120C690545E54570020544C3E8
:0A0B62009408E5446480948040DAB2
:010B6C002266
:100B9D00E512C313FF6512FEE5121313543F6EFEEB
:100BAD00E512131313541F6E5401FEC43333335423
:060BBD00804FF512AF06A7
:010BC300220F
:100BC4007F80120C5BAF1F120C697FC0120C5BE4B8
:100BD400FBFA742F2BF8E6FF120C690BBB00010A19
:060BE400EB64104A70EC06
:010BEA0022E8
:1009A700E4FBFA7F01120C5BD3E5119400E51064B8
:1009B700809480402BAE10AF117C007D0A12084650
:1009C700ED2430FF0BEB70010A142441F8A607AEA3
:1009D70010AF117C007D0A1208468E108F1180C857
:1009E70074412BF8E4F67F84120C5B7BFF7A0C7959
:1009F70049120BEB7FC4120C5B7BFF7A0C79531205
:0B0A07000BEB7B007A007941020BEB47
:100A7C00120B9D8F41E4FFFE74302FF8E6FD742FAE
:100A8C002FF8A6050FBF00010EEF640F4E70E9E5BD
:100A9C001E6401451D6011751F20752F02E530B4D1
:100AAC000306751300751401E51E6401451D7004E1
:100ABC00F51DF51EE541B4011A12087CD39405E529
:100ACC00F064809480400C753E03E475F0011208CC
:090ADC00A78003753E20020BC443
:0A0C7700751F02751D00751E012295
:100C100075900FE590540F640F60147F147E0012DE
:100C20000B73E590540FFFBF0FF87E007F0122E4A5
:030C3000FEFF22A2
:100A1200753F00754001120C337B007A0079157F17
:100A220002120B2C7B007A0079087F03120B2C1226
:100A32000BC4E514640145136039120C10EF640114
:100A42004E7003120C777B007A00793F120A7CE524
:100A5200146401451370031209A77F647E00120B10
:100A6200730511E511700205100540E54070C305DC
:0A0A72003F80BF7F107E27020B7348
:10092700020A12E493A3F8E493A34003F68001F2CA
:1009370008DFF48029E493A3F85407240CC8C333D1
:10094700C4540F4420C8834004F456800146F6DFA0
:10095700E4800B0102040810204080900AE5E47E41
:10096700019360BCA3FF543F30E509541FFEE49395
:10097700A360010ECF54C025E060A840B8E493A35C
:10098700FAE493A3F8E493A3C8C582C8CAC583CA87
:10099700F0A3C8C582C8CAC583CADFE9DEE780BE3F
:010B2B0000C9
:10080000BB010689828A83E0225002E722BBFE02F6
:09081000E32289828A83E4932229
:10081900BB010CE58229F582E5833AF583E0225094
:1008290006E92582F8E622BBFE06E92582F8E222DE
:0D083900E58229F582E5833AF583E49322F8
:10084600C2D5EC30E709B2D5E4C39DFDE49CFCEECD
:1008560030E715B2D5E4C39FFFE49EFE1208C6C377
:10086600E49DFDE49CFC80031208C630D507C3E472
:060876009FFFE49EFE223C
:10087C00BB010A89828A83E0F5F0A3E02250068747
:10088C00F009E71922BBFE07E3F5F009E319228909
:0B089C00828A83E493F5F0740193223C
:1008A700BB010A89828A83F0E5F0A3F0225006F79C
:0F08B70009A7F01922BBFE06F3E5F009F3192299
:1008C600BC000BBE0029EF8DF084FFADF022E4CC16
:1008D600F875F008EF2FFFEE33FEEC33FCEE9DECDF
:1008E600984005FCEE9DFE0FD5F0E9E4CEFD22ED25
:1008F600F8F5F0EE8420D21CFEADF075F008EF2F6F
:10090600FFED33FD4007985006D5F0F222C398FD5F
:050916000FD5F0EA22FC
:00000001FF
